{"abi":[{"type":"constructor","inputs":[{"name":"merkleRoot","type":"bytes32","internalType":"bytes32"},{"name":"airdropToken","type":"address","internalType":"contract IERC20"}],"stateMutability":"nonpayable"},{"type":"function","name":"claim","inputs":[{"name":"account","type":"address","internalType":"address"},{"name":"amount","type":"uint256","internalType":"uint256"},{"name":"merkleProof","type":"bytes32[]","internalType":"bytes32[]"},{"name":"v","type":"uint8","internalType":"uint8"},{"name":"r","type":"bytes32","internalType":"bytes32"},{"name":"s","type":"bytes32","internalType":"bytes32"}],"outputs":[],"stateMutability":"nonpayable"},{"type":"function","name":"eip712Domain","inputs":[],"outputs":[{"name":"fields","type":"bytes1","internalType":"bytes1"},{"name":"name","type":"string","internalType":"string"},{"name":"version","type":"string","internalType":"string"},{"name":"chainId","type":"uint256","internalType":"uint256"},{"name":"verifyingContract","type":"address","internalType":"address"},{"name":"salt","type":"bytes32","internalType":"bytes32"},{"name":"extensions","type":"uint256[]","internalType":"uint256[]"}],"stateMutability":"view"},{"type":"function","name":"getAirdropToken","inputs":[],"outputs":[{"name":"","type":"address","internalType":"contract IERC20"}],"stateMutability":"view"},{"type":"function","name":"getMerkleRoot","inputs":[],"outputs":[{"name":"","type":"bytes32","internalType":"bytes32"}],"stateMutability":"view"},{"type":"function","name":"getMessageHash","inputs":[{"name":"account","type":"address","internalType":"address"},{"name":"amount","type":"uint256","internalType":"uint256"}],"outputs":[{"name":"","type":"bytes32","internalType":"bytes32"}],"stateMutability":"view"},{"type":"event","name":"Claimed","inputs":[{"name":"account","type":"address","indexed":false,"internalType":"address"},{"name":"amount","type":"uint256","indexed":false,"internalType":"uint256"}],"anonymous":false},{"type":"event","name":"EIP712DomainChanged","inputs":[],"anonymous":false},{"type":"event","name":"MerkleRootUpdated","inputs":[{"name":"newMerkleRoot","type":"bytes32","indexed":false,"internalType":"bytes32"}],"anonymous":false},{"type":"error","name":"InvalidShortString","inputs":[]},{"type":"error","name":"MerkleAirdrop__AlreadyClaimed","inputs":[]},{"type":"error","name":"MerkleAirdrop__InvalidProof","inputs":[]},{"type":"error","name":"MerkleAirdrop__InvalidSignature","inputs":[]},{"type":"error","name":"SafeERC20FailedOperation","inputs":[{"name":"token","type":"address","internalType":"address"}]},{"type":"error","name":"StringTooLong","inputs":[{"name":"str","type":"string","internalType":"string"}]}],"bytecode":{"object":"0x6101a0604052348015610010575f5ffd5b50604051611b80380380611b8083398181016040528101906100329190610343565b6040518060400160405280600e81526020017f4d65726b6c652041697264726f700000000000000000000000000000000000008152506040518060400160405280600581526020017f312e302e300000000000000000000000000000000000000000000000000000008152506100b15f8361018c60201b90919060201c565b61012081815250506100cd60018261018c60201b90919060201c565b6101408181525050818051906020012060e08181525050808051906020012061010081815250504660a0818152505061010a6101d960201b60201c565b608081815250503073ffffffffffffffffffffffffffffffffffffffff1660c08173ffffffffffffffffffffffffffffffffffffffff168152505050508161018081815250508073ffffffffffffffffffffffffffffffffffffffff166101608173ffffffffffffffffffffffffffffffffffffffff16815250505050610824565b5f6020835110156101ad576101a68361023360201b60201c565b90506101d3565b826101bd8361029860201b60201c565b5f0190816101cb91906105be565b5060ff5f1b90505b92915050565b5f7f8b73c3c69bb8fe3d512ecc4cf759cc79239f7b179b0ffacaa9a75d522b39400f60e0516101005146306040516020016102189594939291906106ba565b60405160208183030381529060405280519060200120905090565b5f5f829050601f8151111561027f57826040517f305a27a90000000000000000000000000000000000000000000000000000000081526004016102769190610771565b60405180910390fd5b80518161028b906107be565b5f1c175f1b915050919050565b5f819050919050565b5f5ffd5b5f819050919050565b6102b7816102a5565b81146102c1575f5ffd5b50565b5f815190506102d2816102ae565b92915050565b5f73ffffffffffffffffffffffffffffffffffffffff82169050919050565b5f610301826102d8565b9050919050565b5f610312826102f7565b9050919050565b61032281610308565b811461032c575f5ffd5b50565b5f8151905061033d81610319565b92915050565b5f5f60408385031215610359576103586102a1565b5b5f610366858286016102c4565b92505060206103778582860161032f565b9150509250929050565b5f81519050919050565b7f4e487b71000000000000000000000000000000000000000000000000000000005f52604160045260245ffd5b7f4e487b71000000000000000000000000000000000000000000000000000000005f52602260045260245ffd5b5f60028204905060018216806103fc57607f821691505b60208210810361040f5761040e6103b8565b5b50919050565b5f819050815f5260205f209050919050565b5f6020601f8301049050919050565b5f82821b905092915050565b5f600883026104717fffffffffffffffffffffffffffffffffffffffffffffffffffffffffffffffff82610436565b61047b8683610436565b95508019841693508086168417925050509392505050565b5f819050919050565b5f819050919050565b5f6104bf6104ba6104b584610493565b61049c565b610493565b9050919050565b5f819050919050565b6104d8836104a5565b6104ec6104e4826104c6565b848454610442565b825550505050565b5f5f905090565b6105036104f4565b61050e8184846104cf565b505050565b5b81811015610531576105265f826104fb565b600181019050610514565b5050565b601f8211156105765761054781610415565b61055084610427565b8101602085101561055f578190505b61057361056b85610427565b830182610513565b50505b505050565b5f82821c905092915050565b5f6105965f198460080261057b565b1980831691505092915050565b5f6105ae8383610587565b9150826002028217905092915050565b6105c782610381565b67ffffffffffffffff8111156105e0576105df61038b565b5b6105ea82546103e5565b6105f5828285610535565b5f60209050601f831160018114610626575f8415610614578287015190505b61061e85826105a3565b865550610685565b601f19841661063486610415565b5f5b8281101561065b57848901518255600182019150602085019450602081019050610636565b868310156106785784890151610674601f891682610587565b8355505b6001600288020188555050505b505050505050565b610696816102a5565b82525050565b6106a581610493565b82525050565b6106b4816102f7565b82525050565b5f60a0820190506106cd5f83018861068d565b6106da602083018761068d565b6106e7604083018661068d565b6106f4606083018561069c565b61070160808301846106ab565b9695505050505050565b5f82825260208201905092915050565b8281835e5f83830152505050565b5f601f19601f8301169050919050565b5f61074382610381565b61074d818561070b565b935061075d81856020860161071b565b61076681610729565b840191505092915050565b5f6020820190508181035f8301526107898184610739565b905092915050565b5f81519050919050565b5f819050602082019050919050565b5f6107b582516102a5565b80915050919050565b5f6107c882610791565b826107d28461079b565b90506107dd816107aa565b9250602082101561081d576108187fffffffffffffffffffffffffffffffffffffffffffffffffffffffffffffffff83602003600802610436565b831692505b5050919050565b60805160a05160c05160e05161010051610120516101405161016051610180516112e96108975f395f818161026a01526103ab01525f818161035a015261045601525f61065d01525f61062201525f610a7401525f610a5301525f61086501525f6108bb01525f6108e401526112e95ff3fe608060405234801561000f575f5ffd5b5060043610610055575f3560e01c80634497a169146100595780634959065714610075578063512c91df14610093578063548efba2146100c357806384b0196e146100e1575b5f5ffd5b610073600480360381019061006e9190610cf7565b610105565b005b61007d6103a8565b60405161008a9190610db0565b60405180910390f35b6100ad60048036038101906100a89190610dc9565b6103cf565b6040516100ba9190610db0565b60405180910390f35b6100cb610453565b6040516100d89190610e62565b60405180910390f35b6100e961047a565b6040516100fc9796959493929190610ffa565b60405180910390f35b60025f8873ffffffffffffffffffffffffffffffffffffffff1673ffffffffffffffffffffffffffffffffffffffff1681526020019081526020015f205f9054906101000a900460ff1615610186576040517f1ac2170b00000000000000000000000000000000000000000000000000000000815260040160405180910390fd5b61019c8761019489896103cf565b85858561051f565b6101d2576040517fab8b856500000000000000000000000000000000000000000000000000000000815260040160405180910390fd5b5f87876040516020016101e692919061107c565b6040516020818303038152906040528051906020012060405160200161020c91906110c3565b60405160208183030381529060405280519060200120905061028f8686808060200260200160405190810160405280939291908181526020018383602002808284375f81840152601f19601f820116905080830192505050505050507f00000000000000000000000000000000000000000000000000000000000000008361056c565b6102c5576040517fc3c426dc00000000000000000000000000000000000000000000000000000000815260040160405180910390fd5b600160025f8a73ffffffffffffffffffffffffffffffffffffffff1673ffffffffffffffffffffffffffffffffffffffff1681526020019081526020015f205f6101000a81548160ff0219169083151502179055507fd8138f8a3f377c5259ca548e70e4c2de94f129f5a11036a15b69513cba2b426a888860405161034b92919061107c565b60405180910390a161039e88887f000000000000000000000000000000000000000000000000000000000000000073ffffffffffffffffffffffffffffffffffffffff166105829092919063ffffffff16565b5050505050505050565b5f7f0000000000000000000000000000000000000000000000000000000000000000905090565b5f61044b7faa726e564e52b64144617a6a46c42e8b763d4d224ca1a3e13c1491f8a4763a2360405180604001604052808673ffffffffffffffffffffffffffffffffffffffff16815260200185815250604051602001610430929190611119565b60405160208183030381529060405280519060200120610601565b905092915050565b5f7f0000000000000000000000000000000000000000000000000000000000000000905090565b5f6060805f5f5f606061048b61061a565b610493610654565b46305f5f1b5f67ffffffffffffffff8111156104b2576104b1611140565b5b6040519080825280602002602001820160405280156104e05781602001602082028036833780820191505090505b507f0f00000000000000000000000000000000000000000000000000000000000000959493929190965096509650965096509650965090919293949596565b5f5f61052d8686868661068f565b505090508673ffffffffffffffffffffffffffffffffffffffff168173ffffffffffffffffffffffffffffffffffffffff161491505095945050505050565b5f826105788584610776565b1490509392505050565b6105fc838473ffffffffffffffffffffffffffffffffffffffff1663a9059cbb85856040516024016105b592919061107c565b604051602081830303815290604052915060e01b6020820180517bffffffffffffffffffffffffffffffffffffffffffffffffffffffff83818316178352505050506107c7565b505050565b5f61061361060d610862565b83610918565b9050919050565b606061064f5f7f000000000000000000000000000000000000000000000000000000000000000061095890919063ffffffff16565b905090565b606061068a60017f000000000000000000000000000000000000000000000000000000000000000061095890919063ffffffff16565b905090565b5f5f5f7f7fffffffffffffffffffffffffffffff5d576e7357a4501ddfe92f46681b20a0845f1c11156106cb575f60038592509250925061076c565b5f6001888888886040515f81526020016040526040516106ee949392919061117c565b6020604051602081039080840390855afa15801561070e573d5f5f3e3d5ffd5b5050506020604051035190505f73ffffffffffffffffffffffffffffffffffffffff168173ffffffffffffffffffffffffffffffffffffffff160361075f575f60015f5f1b9350935093505061076c565b805f5f5f1b935093509350505b9450945094915050565b5f5f8290505f5f90505b84518110156107bc576107ad828683815181106107a05761079f6111bf565b5b6020026020010151610a05565b91508080600101915050610780565b508091505092915050565b5f5f60205f8451602086015f885af1806107e6576040513d5f823e3d81fd5b3d92505f519150505f82146107ff57600181141561081a565b5f8473ffffffffffffffffffffffffffffffffffffffff163b145b1561085c57836040517f5274afe700000000000000000000000000000000000000000000000000000000815260040161085391906111ec565b60405180910390fd5b50505050565b5f7f000000000000000000000000000000000000000000000000000000000000000073ffffffffffffffffffffffffffffffffffffffff163073ffffffffffffffffffffffffffffffffffffffff161480156108dd57507f000000000000000000000000000000000000000000000000000000000000000046145b1561090a577f00000000000000000000000000000000000000000000000000000000000000009050610915565b610912610a2f565b90505b90565b5f6040517f190100000000000000000000000000000000000000000000000000000000000081528360028201528260228201526042812091505092915050565b606060ff5f1b83146109745761096d83610ac4565b90506109ff565b81805461098090611232565b80601f01602080910402602001604051908101604052809291908181526020018280546109ac90611232565b80156109f75780601f106109ce576101008083540402835291602001916109f7565b820191905f5260205f20905b8154815290600101906020018083116109da57829003601f168201915b505050505090505b92915050565b5f818310610a1c57610a178284610b36565b610a27565b610a268383610b36565b5b905092915050565b5f7f8b73c3c69bb8fe3d512ecc4cf759cc79239f7b179b0ffacaa9a75d522b39400f7f00000000000000000000000000000000000000000000000000000000000000007f00000000000000000000000000000000000000000000000000000000000000004630604051602001610aa9959493929190611262565b60405160208183030381529060405280519060200120905090565b60605f610ad083610b4a565b90505f602067ffffffffffffffff811115610aee57610aed611140565b5b6040519080825280601f01601f191660200182016040528015610b205781602001600182028036833780820191505090505b5090508181528360208201528092505050919050565b5f825f528160205260405f20905092915050565b5f5f60ff835f1c169050601f811115610b8f576040517fb3512b0c00000000000000000000000000000000000000000000000000000000815260040160405180910390fd5b80915050919050565b5f5ffd5b5f5ffd5b5f73ffffffffffffffffffffffffffffffffffffffff82169050919050565b5f610bc982610ba0565b9050919050565b610bd981610bbf565b8114610be3575f5ffd5b50565b5f81359050610bf481610bd0565b92915050565b5f819050919050565b610c0c81610bfa565b8114610c16575f5ffd5b50565b5f81359050610c2781610c03565b92915050565b5f5ffd5b5f5ffd5b5f5ffd5b5f5f83601f840112610c4e57610c4d610c2d565b5b8235905067ffffffffffffffff811115610c6b57610c6a610c31565b5b602083019150836020820283011115610c8757610c86610c35565b5b9250929050565b5f60ff82169050919050565b610ca381610c8e565b8114610cad575f5ffd5b50565b5f81359050610cbe81610c9a565b92915050565b5f819050919050565b610cd681610cc4565b8114610ce0575f5ffd5b50565b5f81359050610cf181610ccd565b92915050565b5f5f5f5f5f5f5f60c0888a031215610d1257610d11610b98565b5b5f610d1f8a828b01610be6565b9750506020610d308a828b01610c19565b965050604088013567ffffffffffffffff811115610d5157610d50610b9c565b5b610d5d8a828b01610c39565b95509550506060610d708a828b01610cb0565b9350506080610d818a828b01610ce3565b92505060a0610d928a828b01610ce3565b91505092959891949750929550565b610daa81610cc4565b82525050565b5f602082019050610dc35f830184610da1565b92915050565b5f5f60408385031215610ddf57610dde610b98565b5b5f610dec85828601610be6565b9250506020610dfd85828601610c19565b9150509250929050565b5f819050919050565b5f610e2a610e25610e2084610ba0565b610e07565b610ba0565b9050919050565b5f610e3b82610e10565b9050919050565b5f610e4c82610e31565b9050919050565b610e5c81610e42565b82525050565b5f602082019050610e755f830184610e53565b92915050565b5f7fff0000000000000000000000000000000000000000000000000000000000000082169050919050565b610eaf81610e7b565b82525050565b5f81519050919050565b5f82825260208201905092915050565b8281835e5f83830152505050565b5f601f19601f8301169050919050565b5f610ef782610eb5565b610f018185610ebf565b9350610f11818560208601610ecf565b610f1a81610edd565b840191505092915050565b610f2e81610bfa565b82525050565b610f3d81610bbf565b82525050565b5f81519050919050565b5f82825260208201905092915050565b5f819050602082019050919050565b610f7581610bfa565b82525050565b5f610f868383610f6c565b60208301905092915050565b5f602082019050919050565b5f610fa882610f43565b610fb28185610f4d565b9350610fbd83610f5d565b805f5b83811015610fed578151610fd48882610f7b565b9750610fdf83610f92565b925050600181019050610fc0565b5085935050505092915050565b5f60e08201905061100d5f83018a610ea6565b818103602083015261101f8189610eed565b905081810360408301526110338188610eed565b90506110426060830187610f25565b61104f6080830186610f34565b61105c60a0830185610da1565b81810360c083015261106e8184610f9e565b905098975050505050505050565b5f60408201905061108f5f830185610f34565b61109c6020830184610f25565b9392505050565b5f819050919050565b6110bd6110b882610cc4565b6110a3565b82525050565b5f6110ce82846110ac565b60208201915081905092915050565b6110e681610bbf565b82525050565b604082015f8201516111005f8501826110dd565b5060208201516111136020850182610f6c565b50505050565b5f60608201905061112c5f830185610da1565b61113960208301846110ec565b9392505050565b7f4e487b71000000000000000000000000000000000000000000000000000000005f52604160045260245ffd5b61117681610c8e565b82525050565b5f60808201905061118f5f830187610da1565b61119c602083018661116d565b6111a96040830185610da1565b6111b66060830184610da1565b95945050505050565b7f4e487b71000000000000000000000000000000000000000000000000000000005f52603260045260245ffd5b5f6020820190506111ff5f830184610f34565b92915050565b7f4e487b71000000000000000000000000000000000000000000000000000000005f52602260045260245ffd5b5f600282049050600182168061124957607f821691505b60208210810361125c5761125b611205565b5b50919050565b5f60a0820190506112755f830188610da1565b6112826020830187610da1565b61128f6040830186610da1565b61129c6060830185610f25565b6112a96080830184610f34565b969550505050505056fea26469706673582212207c5cafc3924f2927c0652912f91d2c173d6c900c7883d86ab416c9a80563174064736f6c634300081c0033","linkReferences":{}},"methodIdentifiers":{"claim(address,uint256,bytes32[],uint8,bytes32,bytes32)":"4497a169","eip712Domain()":"84b0196e","getAirdropToken()":"548efba2","getMerkleRoot()":"49590657","getMessageHash(address,uint256)":"512c91df"},"id":57}